8=FIX.4.4|9=71|35=A|34=1|49=parity|52=20180319-11:15:37.000|56=test|98=0|108=30|141=Y|10=126|