8=FIX.4.4|9=73|35=A|34=1|49=parity|52=20180319-11:44:34.000|56=parity|98=0|108=30|141=Y|10=088|